:100000000C945D000C9485000C9485000C94850084
:100010000C9485000C9485000C9485000C9485004C
:100020000C9485000C9485000C9485000C94B30509
:100030000C9485000C9485000C9485000C9485002C
:100040000C9469050C9485000C9437050C941105EB
:100050000C9485000C9485000C9485000C9485000C
:100060000C9485000C9485000000000024002700FB
:100070002A0000000000250028002B0004040404CE
:100080000404040402020202020203030303030342
:10009000010204081020408001020408102001021F
:1000A00004081020000000080002010000030407FB
:1000B0000000000000000000740611241FBECFEFF6
:1000C000D8E0DEBFCDBF11E0A0E0B1E0E0E4F3E1B5
:1000D00002C005900D92A634B107D9F722E0A6E43C
:1000E000B1E001C01D92A637B207E1F710E0CDE5FF
:1000F000D0E004C02197FE010E949309CC35D107BE
:10010000C9F70E94B6060C949E090C940000E5E81D
:10011000F1E0A089B18982E08C93A485B5851C9219
:10012000A685B78580E18C93108EA489B58986E079
:100130008C93A289B3898C9180618C93A289B389B5
:100140008C9188608C93A289B3898C9180688C9300
:100150000288F389E02D80818F7D80830895CF927E
:10016000DF92EF92FF920F931F932FB7F894C090F6
:100170008101D0908201E0908301F09084012FBF33
:10018000DC01CB018C0D9D1DAE1DBF1D4FB7F8943A
:1001900000918101109182012091830130918401AD
:1001A0004FBF0C151D052E053F0528F08017910740
:1001B000A207B30758F71F910F91FF90EF90DF90C0
:1001C000CF900895CF92DF92EF92FF920F931F93FB
:1001D000CF93DF936C017A018B01C0E0D0E0CE15A4
:1001E000DF0589F0D8016D918D01D601ED91FC916B
:1001F0000190F081E02DC6010995892B11F47E0153
:1002000002C02196ECCFC701DF91CF911F910F91D2
:10021000FF90EF90DF90CF900895089580E090E0F8
:100220000895FC01538D448D252F30E0842F90E0FC
:10023000821B930B541710F0CF96089501970895E1
:10024000FC01918D828D981761F0828DDF01A80FDE
:10025000B11D5D968C91928D9F5F9F73928F90E000
:1002600008958FEF9FEF0895FC01918D828D98176F
:1002700031F0828DE80FF11D858D90E008958FEFAC
:100280009FEF0895FC01918D228D892F90E0805C75
:100290009F4F821B91098F739927089585E891E0FC
:1002A0000E94420121E0892B09F420E0822F089569
:1002B000FC01848DDF01A80FB11DA35ABF4F2C9103
:1002C000848D90E001968F739927848FA689B789D2
:1002D0002C93A089B1898C9180648C93938D848DAB
:1002E000981306C00288F389E02D80818F7D80837A
:1002F0000895EF92FF920F931F93CF93DF93EC013A
:1003000081E0888F9B8D8C8D981305C0E889F989D1
:10031000808185FD24C0F62E0B8D10E00F5F1F4FEE
:100320000F731127E02E8C8DE8120CC00FB607FC5E
:10033000FACFE889F989808185FFF5CFCE010E9447
:100340005801F1CF8B8DFE01E80FF11DE35AFF4FED
:10035000F0820B8FEA89FB898081806207C0EE8979
:10036000FF896083E889F98980818064808381E0E6
:1003700090E0DF91CF911F910F91FF90EF90089542
:10038000CF93DF93EC01888D8823C9F0EA89FB893C
:10039000808185FD05C0A889B9898C9186FD0FC033
:1003A0000FB607FCF5CF808185FFF2CFA889B98908
:1003B0008C9185FFEDCFCE010E945801E7CFDF91F0
:1003C000CF91089580E090E0892B29F00E944E01A2
:1003D00081110C940000089590E0FC01EC55FF4F52
:1003E0003491FC01E057FF4F2491FC01E458FF4F8A
:1003F000E491EE2309F43BC0332339F1333091F01B
:1004000038F43130A9F0323001F584B58F7D12C057
:10041000373091F03830A1F03430B9F48091800059
:100420008F7D03C0809180008F77809380000DC006
:1004300084B58F7784BD09C08091B0008F7703C0E9
:100440008091B0008F7D8093B000F0E0EE0FFF1F31
:10045000EE58FF4FA591B4918FB7F894EC916111CC
:1004600003C020952E2301C02E2B2C938FBF0895FF
:10047000CF93DF9390E0FC01E057FF4F2491FC0104
:10048000E458FF4F8491882361F190E0880F991F11
:10049000FC01E859FF4FC591D491FC01EE58FF4F84
:1004A000A591B491611109C09FB7F89488812095F6
:1004B00082238883EC912E230BC0623061F49FB7B6
:1004C000F8943881822F809583238883EC912E2B9A
:1004D0002C939FBF06C08FB7F894E8812E2B2883FA
:1004E0008FBFDF91CF9108958E3008F08E508770C6
:1004F000806480937C0080917A00806480937A008D
:1005000080917A0086FDFCCF80917800209179005F
:1005100090E0922B08953FB7F89480916D019091EF
:100520006E01A0916F01B091700126B5A89B05C026
:100530002F3F19F00196A11DB11D3FBFBA2FA92F62
:10054000982F8827820F911DA11DB11DBC01CD01DF
:1005500042E0660F771F881F991F4A95D1F70895CB
:100560008F929F92AF92BF92CF92DF92EF92FF92C3
:10057000FC01828128E532E06901C81AD10887FDB3
:10058000D394CC0CDD1CCC0CDD1C0D2C000CEE0827
:10059000FF08818128E830E04901881A910887FD29
:1005A0009394880C991C880C991C092C000CAA089F
:1005B000BB0880818F3FC1F090E0FC01EE0FFF1F70
:1005C0008E0F9F1FFC01E85BFE4F2181328143E0CB
:1005D000220F331F4A95E1F754E0369527955A9537
:1005E000E1F72E5F3F4F02C020E030E02F5F3F4F2A
:1005F000C901330FAA0BBB0B9C01AD0128193909A6
:100600004A095B09A4EBB0E00E942309A701960107
:10061000281939094A095B090E940409C901FF9098
:10062000EF90DF90CF90BF90AF909F908F90089504
:10063000CF92DF92EF92FF92CF93DF93EC01603283
:1006400082E078070CF03DC077FD06C0653B710580
:100650002CF064EB70E002C060E070E0898128E873
:1006600030E06901C81AD10887FDD394CC0CDD1C99
:10067000CC0CDD1C0D2C000CEE08FF088A8128E54F
:1006800032E0281B310987FD3395220F331F220FDB
:10069000331FC901330FAA0BBB0B9C01AD012C19F1
:1006A0003D094E095F09DB010E942E0924EB30E071
:1006B00040E050E00E940409C20ED31EE41EF51E65
:1006C000B60188818C3080F5998148E850E0491B5B
:1006D000510997FD5395440F551F440F551F64173B
:1006E000750784F09A8128E532E0291B310997FDCE
:1006F0003395220F331F220F331FAB012617370705
:100700000CF4A90142505109440F551F2FB7F8941A
:1007100090E0FC01EE0FFF1F8E0F9F1FFC01E85BB6
:10072000FE4F528341832FBFDF91CF91FF90EF9017
:10073000DF90CF9008951F93CF93DF93EC01162F96
:1007400088818C3008F04EC061E0812F0E94380211
:100750008881E82FF0E09F01220F331FE20FF31F83
:10076000E85BFE4F1F739081907C192B10831982D8
:100770001A826CE00E9480099CE0899FB0011124DC
:1007800040E050E09A01260F371FF901EE0FFF1FDE
:100790002E0F3F1FF901E85BFE4F908196FD16C0BA
:1007A0004F5F5F4F4C30510569F781110FC01092B8
:1007B000800082E080938100109285001092840076
:1007C000B19A80916F00826080936F00E881F0E0C1
:1007D000CF01880F991FE80FF91FE85BFE4F80815A
:1007E000806480838881DF91CF911F9108950E945A
:1007F00099096115710579F0FB0101900020E9F775
:100800003197AF01461B570BDC01ED91FC91028043
:10081000F381E02D099480E090E008958F929F92FB
:10082000AF92BF92CF92DF92EF92FF920F931F93FE
:10083000CF93DF93CDB7DEB7A1970FB6F894DEBFA5
:100840000FBECDBF6C01990FEE08FF08F7FE33C055
:10085000E0918501F09186010190F081E02D6DE23B
:1008600085E891E009958C0122273327A9012C19ED
:100870003D094E095F0919A2CE0181967C019AE0DB
:10088000892E912CA12CB12CCA01B901A50194018A
:100890000E94E208605DF70162937F012115310536
:1008A0004105510589F7BF0185E891E00E94F903F0
:1008B000080F191F20C0A701960119A28E010F5D14
:1008C0001F4F8AE0C82ED12CE12CF12CCA01B901AE
:1008D000A70196010E94E208605DF80162938F0112
:1008E000211531054105510589F7BF0185E891E0E2
:1008F0000E94F9038C016DE271E085E891E00E94AD
:10090000F903800F911FA1960FB6F894DEBF0FBEBA
:10091000CDBFDF91CF911F910F91FF90EF90DF90AE
:10092000CF90BF90AF909F908F900895CF93DF931B
:10093000BC0185E891E00E94F903EC016DE271E0F1
:1009400085E891E00E94F9038C0F9D1FDF91CF9104
:1009500008950F931F93CF93DF93EC01809146018D
:100960008C3098F491E0980F90934601888390E042
:10097000FC01EE0FFF1F8E0F9F1FFC01E85BFE4F77
:1009800088EB9BE09283818302C08FEF88838E0186
:100990000D5F1F4F209146012C3098F481E0820FAB
:1009A000809346012B8330E0F901EE0FFF1F2E0FDD
:1009B0003F1FF901E85BFE4F88EB9BE09283818348
:1009C00002C08FEF8B838AE590E09F838E839987A7
:1009D00088871A861B860E94870082E191E00E9428
:1009E000960469E070E0CE010E949B036AE070E02B
:1009F000C8010E949B03CE010E94B0029F838E8398
:100A0000C8010E94B002998788878E819F810E94C9
:100A10000E0488859985DF91CF911F910F910C94D9
:100A20000E041F920F920FB60F9211242F933F9333
:100A30004F935F936F937F938F939F93AF93BF93E6
:100A4000EF93FF9385E891E00E945801FF91EF91A9
:100A5000BF91AF919F918F917F916F915F914F91D6
:100A60003F912F910F900FBE0F901F9018951F92DE
:100A70000F920FB60F9211242F938F939F93EF93A2
:100A8000FF93E0919501F09196018081E0919B01A7
:100A9000F0919C0182FD12C0908180919E018F5F38
:100AA0008F7320919F01821751F0E0919E01F0E039
:100AB000EB57FE4F958F80939E0101C08081FF917F
:100AC000EF919F918F912F910F900FBE0F901F90DC
:100AD00018951F920F920FB60F9211242F933F93E8
:100AE0008F939F93AF93BF938091810190918201E7
:100AF000A0918301B091840130916C0123E0230F18
:100B00002D3720F40196A11DB11D05C026E8230F45
:100B10000296A11DB11D20936C01809381019093D9
:100B20008201A0938301B093840180916D01909123
:100B30006E01A0916F01B09170010196A11DB11DD0
:100B400080936D0190936E01A0936F01B09370013B
:100B5000BF91AF919F918F913F912F910F900FBEB9
:100B60000F901F9018951F920F920FB60F9211249D
:100B70002F933F934F935F936F937F938F939F93A5
:100B8000AF93BF93EF93FF938091470187FF05C019
:100B900010928500109284001BC020914701022E04
:100BA000000C330B8091460190E02817390784F43C
:100BB00080914701082E000C990BFC01EE0FFF1FDE
:100BC0008E0F9F1FFC01E85BFE4F808186FD15C0E4
:100BD000809147018F5F8093470120914701022E4A
:100BE000000C330B8091460190E028173907C4F4BC
:100BF000809147018C3064F113C080914701082E29
:100C0000000C990BFC01EE0FFF1F8E0F9F1FFC01C4
:100C1000E85BFE4F808160E08F730E94EC01D8CFCB
:100C20008091840090918500049680349C4918F44A
:100C300080E49CE905C08091840090918500049631
:100C400090938900809388008FEF809347013BC089
:100C5000209184003091850080914701082E000C7E
:100C6000990BFC01EE0FFF1F8E0F9F1FFC01E85B2D
:100C7000FE4F81819281820F931F90938900809310
:100C8000880080914701082E000C990BFC01EE0FA3
:100C9000FF1F8E0F9F1FFC01E85BFE4F808186FFC8
:100CA00012C080914701082E000C990BFC01EE0F39
:100CB000FF1F8E0F9F1FFC01E85BFE4F808161E0EC
:100CC0008F730E94EC01FF91EF91BF91AF919F91C3
:100CD0008F917F916F915F914F913F912F910F90E5
:100CE0000FBE0F901F901895E5E8F1E01382128275
:100CF00088EE93E0A0E0B0E084839583A683B78379
:100D000084E091E09183808385EC90E095878487EF
:100D100084EC90E09787868780EC90E0918B808BC5
:100D200081EC90E0938B828B82EC90E0958B848BAE
:100D300086EC90E0978B868B118E128E138E148E1C
:100D4000E2E2F2E01682178210861186128613867E
:100D50001486158616861786108A118A128A138AB7
:100D6000148A158A8AE692E00C94A904CF93DF9343
:100D7000CDB7DEB72C970FB6F894DEBF0FBECDBF50
:100D8000789484B5826084BD84B5816084BD85B566
:100D9000826085BD85B5816085BD80916E00816072
:100DA00080936E0010928100809181008260809318
:100DB000810080918100816080938100809180001A
:100DC0008160809380008091B10084608093B10045
:100DD0008091B00081608093B00080917A0084603F
:100DE00080937A0080917A00826080937A0080916B
:100DF0007A00816080937A0080917A008068809385
:100E00007A001092C100109266021092670210924E
:100E10006802109269021092240210922502109228
:100E200026021092270268EB7BE080E090E00E94AF
:100E3000AF0085E891E090936502809364020E9480
:100E400087002FB7F8948091810190918201A09141
:100E50008301B09184012FBF8093240290932502D7
:100E6000A0932602B09327026EE171E080916402A4
:100E7000909165020E94F9036AE070E080E090E0E2
:100E80000E94AF0081E08093380260E085E00E941C
:100E9000380261E08CE00E943802CE0101960E9487
:100EA000A9048CE0FE013196AAE6B2E001900D9211
:100EB0008A95E1F788248A9493E0992EA12CB12C8D
:100EC000332433948EE00E9474027C018FE00E94F0
:100ED00074028C0124EB30E0D7010E948C09A5013B
:100EE00094010E940409CA01B9010E945A086B01C9
:100EF0007C0160937D0170937E0180937F019093CC
:100F0000800124EB30E0D8010E948C09A5019401F6
:100F10000E940409CA01B9010E945A08609379012C
:100F200070937A0180937B0190937C0120917501ED
:100F3000309176014091770150917801C701B60157
:100F40000E94530881111FC020E030E0A901C701B1
:100F5000B6010E94530887FD16C020E030E044E34C
:100F600053E4C701B6010E947B09181664F080E3C0
:100F700091E00E949604C701B6010E9445098AE6E5
:100F800092E00E941803C0907901D0907A01E0901D
:100F90007B01F0907C0120917101309172014091B0
:100FA000730150917401C701B6010E945308811169
:100FB0001FC020E030E0A901C701B6010E9453081C
:100FC00087FD16C020E030E044E353E4C701B601DA
:100FD0000E947B09181664F080E391E00E94960459
:100FE000C701B6010E9445098DE692E00E941803F0
:100FF00080917D0190917E01A0917F01B09180014F
:101000008093750190937601A0937701B093780156
:101010008091790190917A01A0917B01B0917C013E
:101020008093710190937201A0937301B093740146
:1010300080917402811106C03092740261E08CE0EC
:101040000E94EC010E948B022B013C018FE0C82E14
:10105000D12CE12CF12C0E948B02DC01CB018419F4
:101060009509A609B709883E9340A105B10558F036
:1010700021E0C21AD108E108F10888EE480E83E0A9
:10108000581E611C711CC114D104E104F10419F74C
:1010900080917402882321F060E08CE00E94EC01D2
:1010A0000E94E2010FCF0E94950808F481E00895A4
:1010B000E89409C097FB3EF49095809570956195F2
:1010C0007F4F8F4F9F4F9923A9F0F92F96E9BB27A8
:1010D0009395F695879577956795B795F111F8CF24
:1010E000FAF4BB0F11F460FF1BC06F5F7F4F8F4F8F
:1010F0009F4F16C0882311F096E911C0772321F085
:101100009EE8872F762F05C0662371F096E8862F1C
:1011100070E060E02AF09A95660F771F881FDAF773
:10112000880F9695879597F90895990F0008550FA0
:10113000AA0BE0E8FEEF16161706E807F907C0F05D
:1011400012161306E407F50798F0621B730B840B65
:10115000950B39F40A2661F0232B242B252B21F43F
:1011600008950A2609F4A140A6958FEF811D811DDF
:10117000089557FD9058440F551F59F05F3F71F087
:101180004795880F97FB991F61F09F3F79F08795EE
:101190000895121613061406551FF2CF4695F1DF77
:1011A00008C0161617061806991FF1CF8695710507
:1011B000610508940895E894BB2766277727CB013B
:1011C00097F90895A1E21A2EAA1BBB1BFD010DC0C1
:1011D000AA1FBB1FEE1FFF1FA217B307E407F507E7
:1011E00020F0A21BB30BE40BF50B661F771F881FC3
:1011F000991F1A9469F760957095809590959B0159
:10120000AC01BD01CF010895052E97FB1EF400949B
:101210000E941B0957FD07D00E94E20807FC03D07B
:101220004EF40C941B0950954095309521953F4FF5
:101230004F4F5F4F089590958095709561957F4FC2
:101240008F4F9F4F08950E943609A59F900DB49F20
:10125000900DA49F800D911D11240895B7FF0C944B
:1012600023090E942309821B930B0895A29FB001BA
:10127000B39FC001A39F700D811D1124911DB29FCA
:10128000700D811D1124911D08950E944C096894D0
:10129000B1110C94DC0808950E94C10888F09F5792
:1012A00098F0B92F9927B751B0F0E1F0660F771F8A
:1012B000881F991F1AF0BA95C9F714C0B13091F080
:1012C0000E94DB08B1E008950C94DB08672F782FAB
:1012D0008827B85F39F0B93FCCF386957795679545
:1012E000B395D9F73EF490958095709561957F4FB1
:1012F0008F4F9F4F08950E94950808F48FEF08952F
:10130000991B79E004C0991F961708F0961B881F57
:101310007A95C9F7809508950E943609B7FF089518
:10132000821B930B0895EE0FFF1F0590F491E02DA3
:10133000099481E090E0F8940C949E09F894FFCF12
:10134000000000007901E2001101C001420120010A
:101350003401696E69742074757272657400564D3B
:101360004450565F317C315F564D4450560D0A0053
:101370007570646174696E67206F7269656E7461FF
:0613800074696F6E0000AD
:107800000C94343C0C94513C0C94513C0C94513CE1
:107810000C94513C0C94513C0C94513C0C94513CB4
:107820000C94513C0C94513C0C94513C0C94513CA4
:107830000C94513C0C94513C0C94513C0C94513C94
:107840000C94513C0C94513C0C94513C0C94513C84
:107850000C94513C0C94513C0C94513C0C94513C74
:107860000C94513C0C94513C11241FBECFEFD8E036
:10787000DEBFCDBF11E0A0E0B1E0ECE9FFE702C060
:1078800005900D92A230B107D9F712E0A2E0B1E065
:1078900001C01D92AD30B107E1F70E942D3D0C945F
:1078A000CC3F0C94003C982F959595959595959582
:1078B000905D8F708A307CF0282F295A8091C0000B
:1078C00085FFFCCF9093C6008091C00085FFFCCF60
:1078D0002093C6000895282F205DF0CF982F809127
:1078E000C00085FFFCCF9093C6000895EF92FF92F1
:1078F0000F931F93EE24FF2487018091C00087FD22
:1079000017C00894E11CF11C011D111D81E4E8164B
:1079100082E4F8068FE0080780E0180770F3E09132
:107920000401F091050109958091C00087FFE9CF1E
:107930008091C6001F910F91FF90EF9008950E94D3
:10794000763C982F8091C00085FFFCCF9093C600B5
:1079500091362CF490330CF09053892F089597555D
:10796000892F08951F930E949F3C182F0E949F3CCF
:107970001295107F810F1F9108951F93182F882350
:1079800021F00E94763C1150E1F71F9108951F935A
:10799000182F0E94763C803249F0809103018F5F5E
:1079A000809303018530C1F01F9108958091C0003C
:1079B00085FFFCCF84E18093C6008091C00085FFE5
:1079C000FCCF1093C6008091C00085FFFCCF80E102
:1079D0008093C6001F910895E0910401F091050184
:1079E00009951F9108950E94763C803241F0809164
:1079F00003018F5F80930301853081F008958091AA
:107A0000C00085FFFCCF84E18093C6008091C00058
:107A100085FFFCCF80E18093C6000895E0910401CA
:107A2000F09105010995089540E951E08823A1F0FE
:107A30002D9A28EE33E0FA013197F1F721503040CA
:107A4000D1F72D9828EE33E0FA013197F1F7215064
:107A50003040D1F7815061F708953F924F925F9285
:107A60006F927F928F929F92AF92BF92CF92DF924E
:107A7000EF92FF920F931F93CF93DF93000080E16B
:107A80008093C4001092C50088E18093C10086E015
:107A90008093C2005098589A259A81E00E94143D24
:107AA00024E1F22E9EE1E92E85E9D82E0FE0C02ECA
:107AB00010E1B12EAA24A394B1E49B2EA6E58A2E50
:107AC000F2E57F2EE0E26E2E79E4572E63E5462E36
:107AD00050E5352E0E94763C8033B1F18133B9F107
:107AE000803409F46FC0813409F476C0823409F41B
:107AF00085C0853409F488C0803531F1823521F1A3
:107B0000813511F1853509F485C0863509F48DC0BC
:107B1000843609F496C0843709F403C1853709F423
:107B200072C1863709F466C0809103018F5F80932C
:107B30000301853079F6E0910401F0910501099582
:107B40000E94763C803351F60E94F33CC3CF0E94E2
:107B5000763C803249F78091C00085FFFCCFF092DF
:107B6000C6008091C00085FFFCCF9092C600809136
:107B7000C00085FFFCCF8092C6008091C00085FFC9
:107B8000FCCF7092C6008091C00085FFFCCF609250
:107B9000C6008091C00085FFFCCF5092C600809146
:107BA000C00085FFFCCF4092C6008091C00085FFD9
:107BB000FCCF3092C6008091C00085FFFCCFB09210
:107BC000C60088CF0E94763C863808F4BDCF0E945C
:107BD000763C0E94F33C7ECF0E94763C803809F4CC
:107BE0009CC0813809F40BC1823809F43CC1883942
:107BF00009F48FC080E00E94C73C6CCF84E10E94F2
:107C0000BD3C0E94F33C66CF85E00E94BD3C0E94D3
:107C1000F33C60CF0E94763C809306010E94763C44
:107C2000809307010E94F33C55CF0E94763C80333D
:107C300009F41DC183E00E94BD3C80E00E94C73C66
:107C400049CF0E94763C809309020E94763C809343
:107C5000080280910C028E7F80930C020E94763C79
:107C6000853409F415C18091080290910902892B8D
:107C700089F000E010E00E94763CF801E85FFE4FDA
:107C800080830F5F1F4F80910802909109020817AF
:107C9000190788F30E94763C803209F045CF809125
:107CA0000C0280FF01C16091060170910701660F0F
:107CB000771F7093070160930601A0910802B091AD
:107CC00009021097C9F0E8E0F1E09B01AD014E0F09
:107CD0005F1FF999FECF32BD21BD819180BDFA9A17
:107CE000F99A2F5F3F4FE417F50799F76A0F7B1F4B
:107CF00070930701609306018091C00085FFFCCF5F
:107D0000F092C6008091C00085FFFCCFB092C60003
:107D1000E1CE83E00E94C73CDDCE82E00E94C73CFA
:107D2000D9CE0E94763C809309020E94763C8093D3
:107D300008028091060190910701880F991F909386
:107D40000701809306010E94763C853409F4A6C0A1
:107D500080910C028E7F80930C020E94763C8032D0
:107D600009F0B8CE8091C00085FFFCCFF092C6002C
:107D7000609108027091090261157105B9F140E046
:107D800050E080910C02A82FA170B82FB27011C0E2
:107D9000BB2309F45CC0E0910601F0910701319624
:107DA000F0930701E09306014F5F5F4F46175707B7
:107DB000E8F4AA2369F3F999FECF209106013091E6
:107DC000070132BD21BDF89A90B58091C00085FFB2
:107DD000FCCF9093C6002F5F3F4F30930701209355
:107DE00006014F5F5F4F4617570718F38091C00099
:107DF00085FDE5CE8091C00085FFF8CFE0CE81E023
:107E00000E94C73C67CE0E94763C803209F08CCE3F
:107E10008091C00085FFFCCFF092C6008091C00029
:107E200085FFFCCFE092C6008091C00085FFFCCFAB
:107E3000D092C6008091C00085FFFCCFC092C600E2
:107E40008091C00085FFFCCFB092C60043CEE09188
:107E50000601F091070194918091C00085FFFCCF4D
:107E60009093C6009CCF80E10E94C73C33CE0E9415
:107E7000763C0E94763C182F0E94763C112309F430
:107E800083C0113009F484C08FE00E94C73C22CE29
:107E900080910C02816080930C02E5CE80910C02EF
:107EA000816080930C0259CF809107018823880F4D
:107EB000880B8A2180930B02809106019091070123
:107EC000880F991F90930701809306018091080203
:107ED00080FF09C080910802909109020196909359
:107EE000090280930802F894F999FECF1127E091D6
:107EF0000601F0910701C8E0D1E08091080290915D
:107F00000902103091F40091570001700130D9F34B
:107F100003E000935700E89500915700017001308D
:107F2000D9F301E100935700E89509901990009169
:107F3000570001700130D9F301E000935700E89534
:107F40001395103498F011270091570001700130FB
:107F5000D9F305E000935700E895009157000170B0
:107F60000130D9F301E100935700E895329602976A
:107F700009F0C7CF103011F00296E5CF112480919F
:107F8000C00085FFB9CEBCCE8EE10E94C73CA2CD19
:0C7F900085E90E94C73C9ECDF894FFCF0D
:027F9C00800063
:040000030000780081
:00000001FF