:100000000C9463000C948B000C948B000C948B006C
:100010000C948B000C948B000C948B000C948B0034
:100020000C948B000C948B000C948B000C94960415
:100030000C948B000C948B000C948B000C948B0014
:100040000C944C040C948B000C941A040C94F40340
:100050000C948B000C948B000C948B000C948B00F4
:100060000C948B000C948B000000000024002700EF
:100070002A0000000000250028002B0000000000DE
:1000800023002600290004040404040404040202DA
:100090000202020203030303030301020408102007
:1000A0004080010204081020010204081020000012
:1000B0000008000201000003040700000000000027
:1000C00000005705CD0911241FBECFEFD8E0DEBFD9
:1000D000CDBF11E0A0E0B1E0E6E2F9E102C0059099
:1000E0000D92A832B107D9F722E0A8E2B1E001C031
:1000F0001D92A537B207E1F710E0C2E6D0E004C0D8
:100100002197FE010E947B0CC136D107C9F70E94DE
:1001100037060C94860C0C940000E2E4F1E0A08910
:10012000B18982E08C93A485B5851C92A685B7859C
:1001300080E18C93108EA489B58986E08C93A28986
:10014000B3898C9180618C93A289B3898C918860EA
:100150008C93A289B3898C9180688C930288F389EF
:10016000E02D80818F7D8083089580915A02909147
:100170005B02181619065CF080916902811107C0B4
:1001800081E08093690210925B0210925A02809182
:100190005A0290915B02843B910564F08091690260
:1001A000882341F01092690284EB90E090935B0207
:1001B00080935A020895CF92DF92EF92FF920F93AD
:1001C0001F93CF93DF936C017A018B01C0E0D0E0E5
:1001D000CE15DF0589F0D8016D918D01D601ED9125
:1001E000FC910190F081E02DC6010995892B11F455
:1001F0007E0102C02196ECCFC701DF91CF911F9104
:100200000F91FF90EF90DF90CF900895089580E0D8
:1002100090E00895FC01538D448D252F30E0842F0C
:1002200090E0821B930B541710F0CF96089501971E
:100230000895FC01918D828D981761F0828DDF0108
:10024000A80FB11D5D968C91928D9F5F9F73928FC9
:1002500090E008958FEF9FEF0895FC01918D828DBE
:10026000981731F0828DE80FF11D858D90E008958B
:100270008FEF9FEF0895FC01918D228D892F90E0E3
:10028000805C9F4F821B91098F739927089582E4A8
:1002900091E00E943B0121E0892B09F420E0822FAC
:1002A0000895FC01848DDF01A80FB11DA35ABF4F33
:1002B0002C91848D90E001968F739927848FA68965
:1002C000B7892C93A089B1898C9180648C93938D8C
:1002D000848D981306C00288F389E02D80818F7D7C
:1002E00080830895EF92FF920F931F93CF93DF9334
:1002F000EC0181E0888F9B8D8C8D981305C0E88977
:10030000F989808185FD24C0F62E0B8D10E00F5FEA
:100310001F4F0F731127E02E8C8DE8120CC00FB603
:1003200007FCFACFE889F989808185FFF5CFCE01F6
:100330000E945101F1CF8B8DFE01E80FF11DE35AB0
:10034000FF4FF0820B8FEA89FB898081806207C0B2
:10035000EE89FF896083E889F989808180648083E0
:1003600081E090E0DF91CF911F910F91FF90EF908E
:100370000895CF93DF93EC01888D8823C9F0EA8933
:10038000FB89808185FD05C0A889B9898C9186FD8E
:100390000FC00FB607FCF5CF808185FFF2CFA8898B
:1003A000B9898C9185FFEDCFCE010E945101E7CF35
:1003B000DF91CF91089580E090E0892B29F00E9491
:1003C000470181110C9400000895833081F028F4D6
:1003D000813099F08230A1F008958730A9F08830FB
:1003E000B9F08430D1F4809180008F7D03C080917A
:1003F00080008F7780938000089584B58F7702C046
:1004000084B58F7D84BD08958091B0008F7703C03F
:100410008091B0008F7D8093B00008951F93CF939B
:10042000DF93282F30E0F901E255FF4F8491F90165
:10043000E656FF4FD491F901EA57FF4FC491CC2300
:10044000C9F0162F81110E94E501EC2FF0E0EE0FAC
:10045000FF1FEE58FF4FA591B4918FB7F89411117B
:1004600005C09C91ED2FE095E92302C0EC91ED2BA6
:10047000EC938FBFDF91CF911F910895CF93DF93BE
:1004800090E0FC01E656FF4F2491FC01EA57FF4F34
:100490008491882361F190E0880F991FFC01E8594D
:1004A000FF4FC591D491FC01EE58FF4FA591B49137
:1004B000611109C09FB7F8948881209582238883B1
:1004C000EC912E230BC0623061F49FB7F894388111
:1004D000822F809583238883EC912E2B2C939FBFB2
:1004E00006C08FB7F894E8812E2B28838FBFDF9149
:1004F000CF9108953FB7F89480912E0190912F01EC
:10050000A0913001B091310126B5A89B05C02F3FC5
:1005100019F00196A11DB11D3FBFBA2FA92F982F29
:100520008827820F911DA11DB11DBC01CD0142E0A4
:10053000660F771F881F991F4A95D1F708952FB727
:10054000F89460912A0170912B0180912C01909177
:100550002D012FBF08958F929F92AF92BF92CF929D
:10056000DF92EF92FF92FC01828128E532E069017F
:10057000C81AD10887FDD394CC0CDD1CCC0CDD1C33
:100580000D2C000CEE08FF08818128E830E04901BD
:10059000881A910887FD9394880C991C880C991CE3
:1005A000092C000CAA08BB0880818F3FC1F090E0A5
:1005B000FC01EE0FFF1F8E0F9F1FFC01E95DFD4F39
:1005C0002181328143E0220F331F4A95E1F754E045
:1005D000369527955A95E1F72E5F3F4F02C020E0F0
:1005E00030E02F5F3F4FC901330FAA0BBB0B9C01BB
:1005F000AD01281939094A095B09A4EBB0E00E9452
:10060000330BA7019601281939094A095B090E9491
:10061000140BC901FF90EF90DF90CF90BF90AF9087
:100620009F908F900895CF92DF92EF92FF92CF9399
:10063000DF93EC01603282E078070CF03DC077FD7B
:1006400006C0653B71052CF064EB70E002C060E011
:1006500070E0898128E830E06901C81AD10887FD77
:10066000D394CC0CDD1CCC0CDD1C0D2C000CEE0846
:10067000FF088A8128E532E0281B310987FD339580
:10068000220F331F220F331FC901330FAA0BBB0BDD
:100690009C01AD012C193D094E095F09DB010E9447
:1006A0003E0B24EB30E040E050E00E94140BC20E01
:1006B000D31EE41EF51EB60188818C3080F5998129
:1006C00048E850E0491B510997FD5395440F551FC9
:1006D000440F551F6417750784F09A8128E532E0AE
:1006E000291B310997FD3395220F331F220F331F2A
:1006F000AB01261737070CF4A90142505109440FEA
:10070000551F2FB7F89490E0FC01EE0FFF1F8E0FDE
:100710009F1FFC01E95DFD4F528341832FBFDF9195
:10072000CF91FF90EF90DF90CF9008951F93CF93DC
:10073000DF93EC01162F88818C3008F04EC061E009
:10074000812F0E943E028881E82FF0E09F01220F56
:10075000331FE20FF31FE95DFD4F1F739081907C03
:10076000192B108319821A826CE00E946F0C9CE096
:10077000899FB001112440E050E09A01260F371FF5
:10078000F901EE0FFF1F2E0F3F1FF901E95DFD4F2D
:10079000908196FD16C04F5F5F4F4C30510569F751
:1007A00081110FC01092800082E08093810010922E
:1007B000850010928400B19A80916F0082608093CE
:1007C0006F00E881F0E0CF01880F991FE80FF91F53
:1007D000E95DFD4F8081806480838881DF91CF91C6
:1007E0001F9108950E94810C1F920F920FB60F92D5
:1007F00011242F933F934F935F936F937F938F9326
:100800009F93AF93BF93EF93FF9382E491E00E9495
:100810005101FF91EF91BF91AF919F918F917F9186
:100820006F915F914F913F912F910F900FBE0F905D
:100830001F9018951F920F920FB60F9211242F93AD
:100840008F939F93EF93FF93E0915201F0915301A7
:100850008081E0915801F091590182FD12C0908190
:1008600080915B018F5F8F7320915C01821751F043
:10087000E0915B01F0E0EE5BFE4F958F80935B01B2
:1008800001C08081FF91EF919F918F912F910F90E7
:100890000FBE0F901F9018951F920F920FB60F92D8
:1008A00011242F933F938F939F93AF93BF93809186
:1008B0002A0190912B01A0912C01B0912D01309132
:1008C000290123E0230F2D3720F40196A11DB11D2E
:1008D00005C026E8230F0296A11DB11D2093290112
:1008E00080932A0190932B01A0932C01B0932D01AA
:1008F00080912E0190912F01A0913001B091310192
:100900000196A11DB11D80932E0190932F01A093FC
:100910003001B0933101BF91AF919F918F913F9181
:100920002F910F900FBE0F901F9018951F920F924E
:100930000FB60F9211242F933F934F935F936F93B2
:100940007F938F939F93AF93BF93EF93FF93809188
:10095000280187FF05C010928500109284001BC0FB
:1009600020912801022E000C330B80914B0290E065
:100970002817390784F480912801082E000C990B60
:10098000FC01EE0FFF1F8E0F9F1FFC01E95DFD4F65
:10099000808186FD15C0809128018F5F809328019A
:1009A00020912801022E000C330B80914B0290E025
:1009B00028173907C4F4809128018C3064F113C0E2
:1009C00080912801082E000C990BFC01EE0FFF1FEF
:1009D0008E0F9F1FFC01E95DFD4F808160E08F73EA
:1009E0000E940E02D8CF80918400909185000496D9
:1009F00080349C4918F480E49CE905C0809184000F
:100A000090918500049690938900809388008FEFE1
:100A1000809328013BC02091840030918500809113
:100A20002801082E000C990BFC01EE0FFF1F8E0F02
:100A30009F1FFC01E95DFD4F81819281820F931F11
:100A4000909389008093880080912801082E000CE3
:100A5000990BFC01EE0FFF1F8E0F9F1FFC01E95D3C
:100A6000FD4F808186FF12C080912801082E000C66
:100A7000990BFC01EE0FFF1F8E0F9F1FFC01E95D1C
:100A8000FD4F808161E08F730E940E02FF91EF9114
:100A9000BF91AF919F918F917F916F915F914F9196
:100AA0003F912F910F900FBE0F901F9018951092AD
:100AB00045011092440188EE93E0A0E0B0E08093FD
:100AC000460190934701A0934801B093490188E003
:100AD00091E0909343018093420185EC90E09093E4
:100AE0004F0180934E0184EC90E0909351018093EC
:100AF000500180EC90E0909353018093520181EC7F
:100B000090E0909355018093540182EC90E0909393
:100B100057018093560186EC90E0909359018093A1
:100B2000580110925B0110925C0110925D011092CD
:100B30005E011092E5011092E6011092E701109219
:100B4000E8011092E9011092EA011092EB01109273
:100B5000EC011092ED011092EE011092EF01109253
:100B6000F0011092F1011092F2011092F301109233
:100B7000F40180E090E0A4EBB2E4809356029093FD
:100B80005702A0935802B09359028AE590E09093DF
:100B90005B0280935A0210925D0210925C0284EB19
:100BA00090E090935F0280935E0210926102109237
:100BB000600290936302809362021092640210922A
:100BC000650210926602109267021092680281E03C
:100BD000809369028DEC9CECACECBDE380936A02DF
:100BE00090936B02A0936C02B0936D02109271020D
:100BF000109270021092720210927302109274029C
:100C000080914B028C30A0F491E0980F90934B02AE
:100C100080934F0290E0FC01EE0FFF1F8E0F9F1F8D
:100C2000FC01E95DFD4F88EB9BE09283818303C06B
:100C30008FEF80934F0280914B028C30A0F491E0B3
:100C4000980F90934B0280934C0290E0FC01EE0FC2
:100C5000FF1F8E0F9F1FFC01E95DFD4F88EB9BE09E
:100C60009283818308958FEF80934C020895CF93F0
:100C7000DF9300D000D000D0CDB7DEB7789484B534
:100C8000826084BD84B5816084BD85B5826085BD88
:100C900085B5816085BD80916E00816080936E0016
:100CA0001092810080918100826080938100809108
:100CB00081008160809381008091800081608093B9
:100CC00080008091B10084608093B1008091B00079
:100CD00081608093B00080917A00846080937A0074
:100CE00080917A00826080937A0080917A0081609E
:100CF00080937A0080917A00806880937A001092C5
:100D0000C100109223021092240210922502109228
:100D100026021092E1011092E2011092E30110927A
:100D2000E4010E949F026B017C014B015C0128EBF6
:100D3000820E2BE0921EA11CB11C0E949F026C151A
:100D40007D058E059F0528F086169706A806B9062C
:100D5000A0F782E491E090932202809321020E9406
:100D60008D000E949F026093E1017093E2018093E5
:100D7000E3019093E4018091210290912202DC0131
:100D8000ED91FC910280F381E02D41E150E066E1BC
:100D900071E009950E949F026B017C014B015C018F
:100DA000BAE08B0E911CA11CB11C0E949F026C1515
:100DB0007D058E059F0528F086169706A806B906BC
:100DC000A0F7FF24F394F092F5010E949F020E9485
:100DD000D30960933E0170933F018093400190934B
:100DE000410160E085E00E943E0261E08CE00E94EB
:100DF0003E0269E070E08FE492E00E9496036AE0B0
:100E000070E08CE492E00E94960380914F029091F2
:100E10005002A09151028C839D83AE8380914C023D
:100E200090914D02A0914E0289839A83AB830E94D8
:100E30008D003E01E4E06E0E711CC3010E94AB0206
:100E40005C01CE0101964C010E94AB026C0160E096
:100E50008CE00E940E0270925302609252029092B5
:100E6000550280925402B501BB0C880B990B0E946D
:100E7000D50960935602709357028093580290935D
:100E80005902D0925B02C0925A0210925D021092F7
:100E90005C0284EB90E090935F0280935E0210927C
:100EA000610210926002909363028093620210923A
:100EB000640210926502109266021092670210920C
:100EC0006802F09269028DEC9CECACECBDE380937F
:100ED0006A0290936B02A0936C02B0936D028AE554
:100EE00090E090936F0280936E02909371028093D2
:100EF0007002F0927202F0927302F092740222EB8E
:100F0000222E20E0322E0E949F020E94D3092091BF
:100F10003E0130913F0140914001509141010E94BA
:100F2000550B4B015C0160933A0170933B01809338
:100F30003C0190933D012091360130913701409161
:100F40003801509139010E94550B20E030E04AE70A
:100F500054E40E94C20B6B017C01609332017093D8
:100F60003301809334019093350180923601909241
:100F70003701A0923801B092390180917202882322
:100F800009F424C180917302882309F466C0A090FB
:100F90005A02B0905B022091700230917102A21649
:100FA000B3062CF02A153B051CF410E001C0182FE5
:100FB000109369022AE037ED43E25CE3C701B60112
:100FC0000E94340A2B013C01612F70E080E090E028
:100FD0000E94D5099B01AC01C301B2010E94340AF1
:100FE00020E030E0A9010E94CE09811103C08FEFFB
:100FF0009FEF02C081E090E0A80EB91EB0925B02A4
:10100000A0925A020E94B50060915A0270915B0250
:1010100080916002909161026817790744F0809195
:10102000620290916302861797070CF0A1C180912C
:1010300070029091710220915A0230915B02AC01D2
:1010400041505109241735070CF406C10196821747
:1010500093070CF401C11092730270907402772010
:1010600009F485C08090560290905702A0905802D3
:10107000B0905902C501B4010E94340C80916E02F7
:1010800090916F02681779072CF0861797071CF468
:1010900000E001C0072D009369022AE037ED43E22A
:1010A0005CE3C701B6010E94340A2B013C01602FAA
:1010B00070E080E090E00E94D5099B01AC01C30183
:1010C000B2010E94340A20E030E0A9010E94CE095A
:1010D000811105C020E030E040E85FEB04C020E073
:1010E00030E040E85FE3C501B4010E94560B609315
:1010F00056027093570280935802909359020E94AF
:10110000B5006091560270915702809158029091FB
:1011100059020E94340C20915C0230915D026217EA
:10112000730744F020915E0230915F022617370763
:101130000CF025C1A0906E02B0906F026091560233
:101140007091570280915802909159020E94340C7C
:10115000C5010597681779070CF47EC095E0A90EC4
:10116000B11CA616B7060CF477C0109274028090DA
:10117000000190900101A0900201B090030120E0D5
:1011800030E0A901C501B4010E946A0C18167CF474
:10119000A7019601C501B4010E94550B609300019F
:1011A00070930101809302019093030155C080E088
:1011B00090E0A0E2B1E48093000190930101A0933C
:1011C0000201B09303011092720246C0A0905A022D
:1011D000B0905B0220916A0230916B0240916C02E8
:1011E00050916D02C701B6010E94340A6B017C0167
:1011F0006091690270E080E090E00E94D5099B0157
:10120000AC01C701B6010E94340A20E030E0A90118
:101210000E94CE09811103C08FEF9FEF02C081E0D1
:1012200090E0A80EB91EB0925B02A0925A020E94F2
:10123000B50060915A0270915B02809160029091BA
:1012400061026817790744F080916202909163020D
:10125000861797070CF09AC0F1018491EEE9F0E04F
:10126000F490EAE8F0E0E490EE2029F181110E9488
:10127000E501EE2DF0E0EE0FFF1FE458FF4FA591C2
:10128000B4918C91F822B9F080916402811113C05D
:10129000F1E0F093640280E090E0A0E0B0E480939D
:1012A000650290936602A0936702B093680261E0C2
:1012B0008CE00E940E020E947A024B015C018FE0DA
:1012C000C82ED12CE12CF12C0E947A02DC01CB013A
:1012D00088199909AA09BB09883E9340A105B1055F
:1012E00058F091E0C91AD108E108F108A8EE8A0E79
:1012F000A3E09A1EA11CB11CC114D104E104F104A5
:1013000019F78090320190903301A0903401B09091
:101310003501C0906502D0906602E0906702F090BF
:10132000680220E030E0A901C701B6010E946A0C02
:101330001816DCF4A5019401C701B6010E94550BF3
:1013400060936502709366028093670290936802CF
:1013500020E030E0A9010E94CE09181634F0109266
:10136000640260E08CE00E940E020E94DB01CBCDA3
:1013700080915402909155020E94130358CE80919F
:101380005202909153020E941303D4CE80915402D2
:10139000909155020E9413035FCF08950E94100A96
:1013A00008F481E00895E89409C097FB3EF4909515
:1013B0008095709561957F4F8F4F9F4F9923A9F02E
:1013C000F92F96E9BB279395F695879577956795BD
:1013D000B795F111F8CFFAF4BB0F11F460FF1BC001
:1013E0006F5F7F4F8F4F9F4F16C0882311F096E994
:1013F00011C0772321F09EE8872F762F05C0662342
:1014000071F096E8862F70E060E02AF09A95660FFA
:10141000771F881FDAF7880F9695879597F90895B3
:10142000990F0008550FAA0BE0E8FEEF16161706F5
:10143000E807F907C0F012161306E407F50798F05D
:10144000621B730B840B950B39F40A2661F0232B76
:10145000242B252B21F408950A2609F4A140A695F2
:101460008FEF811D811D08950E94470A0C94B80AD0
:101470000E94AA0A38F00E94B10A20F0952311F0C8
:101480000C94A10A0C94A70A11240C94EC0A0E9453
:10149000C90A70F3959FC1F3950F50E0551F629FE5
:1014A000F001729FBB27F00DB11D639FAA27F00DBD
:1014B000B11DAA1F649F6627B00DA11D661F829FE4
:1014C0002227B00DA11D621F739FB00DA11D621FC9
:1014D000839FA00D611D221F749F3327A00D611DE6
:1014E000231F849F600D211D822F762F6A2F1124C8
:1014F0009F5750409AF0F1F088234AF0EE0FFF1FFB
:10150000BB1F661F771F881F91505040A9F79E3F51
:10151000510580F00C94A10A0C94EC0A5F3FE4F3AF
:10152000983ED4F3869577956795B795F795E795A7
:101530009F5FC1F7FE2B880F911D9695879597F9B0
:10154000089597F99F6780E870E060E008959FEF45
:1015500080EC089500240A9416161706180609064A
:10156000089500240A941216130614060506089519
:10157000092E0394000C11F4882352F0BB0F40F4A1
:10158000BF2B11F460FF04C06F5F7F4F8F4F9F4FE1
:10159000089557FD9058440F551F59F05F3F71F063
:1015A0004795880F97FB991F61F09F3F79F08795CA
:1015B0000895121613061406551FF2CF4695F1DF53
:1015C00008C0161617061806991FF1CF86957105E3
:1015D000610508940895E894BB2766277727CB0117
:1015E00097F90895A1E21A2EAA1BBB1BFD010DC09D
:1015F000AA1FBB1FEE1FFF1FA217B307E407F507C3
:1016000020F0A21BB30BE40BF50B661F771F881F9E
:10161000991F1A9469F760957095809590959B0134
:10162000AC01BD01CF010895052E97FB1EF4009477
:101630000E942B0B57FD07D00E94F20A07FC03D033
:101640004EF40C942B0B50954095309521953F4FBF
:101650004F4F5F4F089590958095709561957F4F9E
:101660008F4F9F4F08950E94460BA59F900DB49FEA
:10167000900DA49F800D911D11240895B7FF0C9427
:10168000330B0E94330B821B930B0895A29FB00172
:10169000B39FC001A39F700D811D1124911DB29FA6
:1016A000700D811D1124911D08955058BB27AA2744
:1016B0000E946D0B0C94B80A0E94AA0A38F00E948E
:1016C000B10A20F039F49F3F19F426F40C94A70ACC
:1016D0000EF4E095E7FB0C94A10AE92F0E94C90AD9
:1016E00058F3BA17620773078407950720F079F457
:1016F000A6F50C94EB0A0EF4E0950B2EBA2FA02D54
:101700000B01B90190010C01CA01A0011124FF27AE
:10171000591B99F0593F50F4503E68F11A16F040A9
:10172000A22F232F342F4427585FF3CF46953795A8
:101730002795A795F0405395C9F77EF41F16BA0B6D
:10174000620B730B840BBAF09150A1F0FF0FBB1F1B
:10175000661F771F881FC2F70EC0BA0F621F731F64
:10176000841F48F4879577956795B795F7959E3FC1
:1017700008F0B0CF9395880F08F09927EE0F979552
:10178000879508950E94D60B0C94B80A0E94B10A5E
:1017900058F00E94AA0A40F029F45F3F29F00C9407
:1017A000A10A51110C94EC0A0C94A70A0E94C90AD0
:1017B00068F39923B1F3552391F3951B550BBB2780
:1017C000AA2762177307840738F09F5F5F4F220FC5
:1017D000331F441FAA1FA9F335D00E2E3AF0E0E8BC
:1017E00032D091505040E695001CCAF72BD0FE2F06
:1017F00029D0660F771F881FBB1F2617370748079A
:10180000AB07B0E809F0BB0B802DBF01FF27935851
:101810005F4F3AF09E3F510578F00C94A10A0C946A
:10182000EC0A5F3FE4F3983ED4F38695779567958D
:10183000B795F7959F5FC9F7880F911D9695879586
:1018400097F90895E1E0660F771F881FBB1F6217A5
:1018500073078407BA0720F0621B730B840BBA0B63
:10186000EE1F88F7E09508950E943B0C6894B11133
:101870000C94EC0A08950E94D10A88F09F5798F0C2
:10188000B92F9927B751B0F0E1F0660F771F881F85
:10189000991F1AF0BA95C9F714C0B13091F00E949F
:1018A000EB0AB1E008950C94EB0A672F782F882794
:1018B000B85F39F0B93FCCF3869577956795B395C6
:1018C000D9F73EF490958095709561957F4F8F4F35
:1018D0009F4F08950E94100A08F48FEF0895991BF6
:1018E00079E004C0991F961708F0961B881F7A9517
:1018F000C9F780950895EE0FFF1F0590F491E02D34
:10190000099481E090E0F8940C94860C10E0C2E613
:10191000D0E004C0FE010E947B0C2196C336D107A3
:06192000C9F7F894FFCFA7
:1019260000002041000000007201DB000A01B9013D
:101936003B0119012D01564D4450565F317C315FF4
:08194600564D4450560D0A00F5
:107800000C94343C0C94513C0C94513C0C94513CE1
:107810000C94513C0C94513C0C94513C0C94513CB4
:107820000C94513C0C94513C0C94513C0C94513CA4
:107830000C94513C0C94513C0C94513C0C94513C94
:107840000C94513C0C94513C0C94513C0C94513C84
:107850000C94513C0C94513C0C94513C0C94513C74
:107860000C94513C0C94513C11241FBECFEFD8E036
:10787000DEBFCDBF11E0A0E0B1E0ECE9FFE702C060
:1078800005900D92A230B107D9F712E0A2E0B1E065
:1078900001C01D92AD30B107E1F70E942D3D0C945F
:1078A000CC3F0C94003C982F959595959595959582
:1078B000905D8F708A307CF0282F295A8091C0000B
:1078C00085FFFCCF9093C6008091C00085FFFCCF60
:1078D0002093C6000895282F205DF0CF982F809127
:1078E000C00085FFFCCF9093C6000895EF92FF92F1
:1078F0000F931F93EE24FF2487018091C00087FD22
:1079000017C00894E11CF11C011D111D81E4E8164B
:1079100082E4F8068FE0080780E0180770F3E09132
:107920000401F091050109958091C00087FFE9CF1E
:107930008091C6001F910F91FF90EF9008950E94D3
:10794000763C982F8091C00085FFFCCF9093C600B5
:1079500091362CF490330CF09053892F089597555D
:10796000892F08951F930E949F3C182F0E949F3CCF
:107970001295107F810F1F9108951F93182F882350
:1079800021F00E94763C1150E1F71F9108951F935A
:10799000182F0E94763C803249F0809103018F5F5E
:1079A000809303018530C1F01F9108958091C0003C
:1079B00085FFFCCF84E18093C6008091C00085FFE5
:1079C000FCCF1093C6008091C00085FFFCCF80E102
:1079D0008093C6001F910895E0910401F091050184
:1079E00009951F9108950E94763C803241F0809164
:1079F00003018F5F80930301853081F008958091AA
:107A0000C00085FFFCCF84E18093C6008091C00058
:107A100085FFFCCF80E18093C6000895E0910401CA
:107A2000F09105010995089540E951E08823A1F0FE
:107A30002D9A28EE33E0FA013197F1F721503040CA
:107A4000D1F72D9828EE33E0FA013197F1F7215064
:107A50003040D1F7815061F708953F924F925F9285
:107A60006F927F928F929F92AF92BF92CF92DF924E
:107A7000EF92FF920F931F93CF93DF93000080E16B
:107A80008093C4001092C50088E18093C10086E015
:107A90008093C2005098589A259A81E00E94143D24
:107AA00024E1F22E9EE1E92E85E9D82E0FE0C02ECA
:107AB00010E1B12EAA24A394B1E49B2EA6E58A2E50
:107AC000F2E57F2EE0E26E2E79E4572E63E5462E36
:107AD00050E5352E0E94763C8033B1F18133B9F107
:107AE000803409F46FC0813409F476C0823409F41B
:107AF00085C0853409F488C0803531F1823521F1A3
:107B0000813511F1853509F485C0863509F48DC0BC
:107B1000843609F496C0843709F403C1853709F423
:107B200072C1863709F466C0809103018F5F80932C
:107B30000301853079F6E0910401F0910501099582
:107B40000E94763C803351F60E94F33CC3CF0E94E2
:107B5000763C803249F78091C00085FFFCCFF092DF
:107B6000C6008091C00085FFFCCF9092C600809136
:107B7000C00085FFFCCF8092C6008091C00085FFC9
:107B8000FCCF7092C6008091C00085FFFCCF609250
:107B9000C6008091C00085FFFCCF5092C600809146
:107BA000C00085FFFCCF4092C6008091C00085FFD9
:107BB000FCCF3092C6008091C00085FFFCCFB09210
:107BC000C60088CF0E94763C863808F4BDCF0E945C
:107BD000763C0E94F33C7ECF0E94763C803809F4CC
:107BE0009CC0813809F40BC1823809F43CC1883942
:107BF00009F48FC080E00E94C73C6CCF84E10E94F2
:107C0000BD3C0E94F33C66CF85E00E94BD3C0E94D3
:107C1000F33C60CF0E94763C809306010E94763C44
:107C2000809307010E94F33C55CF0E94763C80333D
:107C300009F41DC183E00E94BD3C80E00E94C73C66
:107C400049CF0E94763C809309020E94763C809343
:107C5000080280910C028E7F80930C020E94763C79
:107C6000853409F415C18091080290910902892B8D
:107C700089F000E010E00E94763CF801E85FFE4FDA
:107C800080830F5F1F4F80910802909109020817AF
:107C9000190788F30E94763C803209F045CF809125
:107CA0000C0280FF01C16091060170910701660F0F
:107CB000771F7093070160930601A0910802B091AD
:107CC00009021097C9F0E8E0F1E09B01AD014E0F09
:107CD0005F1FF999FECF32BD21BD819180BDFA9A17
:107CE000F99A2F5F3F4FE417F50799F76A0F7B1F4B
:107CF00070930701609306018091C00085FFFCCF5F
:107D0000F092C6008091C00085FFFCCFB092C60003
:107D1000E1CE83E00E94C73CDDCE82E00E94C73CFA
:107D2000D9CE0E94763C809309020E94763C8093D3
:107D300008028091060190910701880F991F909386
:107D40000701809306010E94763C853409F4A6C0A1
:107D500080910C028E7F80930C020E94763C8032D0
:107D600009F0B8CE8091C00085FFFCCFF092C6002C
:107D7000609108027091090261157105B9F140E046
:107D800050E080910C02A82FA170B82FB27011C0E2
:107D9000BB2309F45CC0E0910601F0910701319624
:107DA000F0930701E09306014F5F5F4F46175707B7
:107DB000E8F4AA2369F3F999FECF209106013091E6
:107DC000070132BD21BDF89A90B58091C00085FFB2
:107DD000FCCF9093C6002F5F3F4F30930701209355
:107DE00006014F5F5F4F4617570718F38091C00099
:107DF00085FDE5CE8091C00085FFF8CFE0CE81E023
:107E00000E94C73C67CE0E94763C803209F08CCE3F
:107E10008091C00085FFFCCFF092C6008091C00029
:107E200085FFFCCFE092C6008091C00085FFFCCFAB
:107E3000D092C6008091C00085FFFCCFC092C600E2
:107E40008091C00085FFFCCFB092C60043CEE09188
:107E50000601F091070194918091C00085FFFCCF4D
:107E60009093C6009CCF80E10E94C73C33CE0E9415
:107E7000763C0E94763C182F0E94763C112309F430
:107E800083C0113009F484C08FE00E94C73C22CE29
:107E900080910C02816080930C02E5CE80910C02EF
:107EA000816080930C0259CF809107018823880F4D
:107EB000880B8A2180930B02809106019091070123
:107EC000880F991F90930701809306018091080203
:107ED00080FF09C080910802909109020196909359
:107EE000090280930802F894F999FECF1127E091D6
:107EF0000601F0910701C8E0D1E08091080290915D
:107F00000902103091F40091570001700130D9F34B
:107F100003E000935700E89500915700017001308D
:107F2000D9F301E100935700E89509901990009169
:107F3000570001700130D9F301E000935700E89534
:107F40001395103498F011270091570001700130FB
:107F5000D9F305E000935700E895009157000170B0
:107F60000130D9F301E100935700E895329602976A
:107F700009F0C7CF103011F00296E5CF112480919F
:107F8000C00085FFB9CEBCCE8EE10E94C73CA2CD19
:0C7F900085E90E94C73C9ECDF894FFCF0D
:027F9C00800063
:040000030000780081
:00000001FF