:100000000C9462000C948A000C948A000C948A0070
:100010000C948A000C948A000C948A000C948A0038
:100020000C948A000C948A000C948A000C94CD04E1
:100030000C948A000C948A000C948A000C948A0018
:100040000C9483040C948A000C9451040C942B049B
:100050000C948A000C948A000C948A000C948A00F8
:100060000C948A000C948A000000000024002700F1
:100070002A0000000000250028002B0000000000DE
:1000800023002600290004040404040404040202DA
:100090000202020203030303030301020408102007
:1000A0004080010204081020010204081020000012
:1000B0000008000201000003040700000000000027
:1000C00000008E0511241FBECFEFD8E0DEBFCDBFEC
:1000D00011E0A0E0B1E0E4EBF9E102C005900D927F
:1000E000A033B107D9F722E0A0E3B1E001C01D922F
:1000F000AA37B207E1F710E0C2E6D0E004C02197CA
:10010000FE010E94CD0CC136D107C9F70E946C06D2
:100110000C94D80C0C940000EAE4F1E0A089B189B9
:1001200082E08C93A485B5851C92A685B78580E175
:100130008C93108EA489B58986E08C93A289B389AB
:100140008C9180618C93A289B3898C9188608C9307
:10015000A289B3898C9180688C930288F389E02D01
:1001600080818F7D80830895CF92DF92EF92FF92FE
:100170000F931F93CF93DF936C017A018B01C0E043
:10018000D0E0CE15DF0589F0D8016D918D01D60143
:10019000ED91FC910190F081E02DC6010995892B2C
:1001A00011F47E0102C02196ECCFC701DF91CF91FF
:1001B0001F910F91FF90EF90DF90CF9008950895D9
:1001C00080E090E00895FC01538D448D252F30E0B0
:1001D000842F90E0821B930B541710F0CF96089554
:1001E00001970895FC01918D828D981761F0828DA1
:1001F000DF01A80FB11D5D968C91928D9F5F9F735B
:10020000928F90E008958FEF9FEF0895FC01918DFC
:10021000828D981731F0828DE80FF11D858D90E069
:1002200008958FEF9FEF0895FC01918D228D892F06
:1002300090E0805C9F4F821B91098F7399270895EE
:100240008AE491E00E94140121E0892B09F420E066
:10025000822F0895FC01848DDF01A80FB11DA35AE0
:10026000BF4F2C91848D90E001968F739927848FD6
:10027000A689B7892C93A089B1898C9180648C93CD
:10028000938D848D981306C00288F389E02D8081B8
:100290008F7D80830895EF92FF920F931F93CF93EA
:1002A000DF93EC0181E0888F9B8D8C8D981305C0C6
:1002B000E889F989808185FD24C0F62E0B8D10E038
:1002C0000F5F1F4F0F731127E02E8C8DE8120CC0AB
:1002D0000FB607FCFACFE889F989808185FFF5CF51
:1002E000CE010E942A01F1CF8B8DFE01E80FF11D96
:1002F000E35AFF4FF0820B8FEA89FB89808180628D
:1003000007C0EE89FF896083E889F989808180646C
:10031000808381E090E0DF91CF911F910F91FF905A
:10032000EF900895CF93DF93EC01888D8823C9F077
:10033000EA89FB89808185FD05C0A889B9898C91EE
:1003400086FD0FC00FB607FCF5CF808185FFF2CF89
:10035000A889B9898C9185FFEDCFCE010E942A0131
:10036000E7CFDF91CF91089580E090E0892B29F0CD
:100370000E94200181110C9400000895833081F0C7
:1003800028F4813099F08230A1F008958730A9F0E7
:100390008830B9F08430D1F4809180008F7D03C023
:1003A000809180008F7780938000089584B58F7747
:1003B00002C084B58F7D84BD08958091B0008F7791
:1003C00003C08091B0008F7D8093B00008951F938B
:1003D000CF93DF93282F30E0F901E255FF4F84914E
:1003E000F901E656FF4FD491F901EA57FF4FC49146
:1003F000CC23C9F0162F81110E94BE01EC2FF0E032
:10040000EE0FFF1FEE58FF4FA591B4918FB7F894F0
:10041000111105C09C91ED2FE095E92302C0EC91EC
:10042000ED2BEC938FBFDF91CF911F910895CF9368
:10043000DF9390E0FC01E656FF4F2491FC01EA5760
:10044000FF4F8491882361F190E0880F991FFC0190
:10045000E859FF4FC591D491FC01EE58FF4FA5918B
:10046000B491611109C09FB7F894888120958223C7
:100470008883EC912E230BC0623061F49FB7F8940F
:100480003881822F809583238883EC912E2B2C93A7
:100490009FBF06C08FB7F894E8812E2B28838FBFAB
:1004A000DF91CF9108953FB7F894809136019091F4
:1004B0003701A0913801B091390126B5A89B05C03C
:1004C0002F3F19F00196A11DB11D3FBFBA2FA92FD3
:1004D000982F8827820F911DA11DB11DBC01CD0150
:1004E00042E0660F771F881F991F4A95D1F708953C
:1004F0002FB7F894609132017091330180913401EB
:10050000909135012FBF08958F929F92AF92BF9225
:10051000CF92DF92EF92FF92FC01828128E532E0D8
:100520006901C81AD10887FDD394CC0CDD1CCC0C12
:10053000DD1C0D2C000CEE08FF08818128E830E05E
:100540004901881A910887FD9394880C991C880C9E
:10055000991C092C000CAA08BB0880818F3FC1F0B0
:1005600090E0FC01EE0FFF1F8E0F9F1FFC01E15D6D
:10057000FD4F2181328143E0220F331F4A95E1F77D
:1005800054E0369527955A95E1F72E5F3F4F02C00C
:1005900020E030E02F5F3F4FC901330FAA0BBB0BA8
:1005A0009C01AD01281939094A095B09A4EBB0E0A7
:1005B0000E94F20BA7019601281939094A095B0923
:1005C0000E94D30BC901FF90EF90DF90CF90BF90B6
:1005D000AF909F908F900895CF92DF92EF92FF920D
:1005E000CF93DF93EC01603282E078070CF03DC0DE
:1005F00077FD06C0653B71052CF064EB70E002C02E
:1006000060E070E0898128E830E06901C81AD1080B
:1006100087FDD394CC0CDD1CCC0CDD1C0D2C000C08
:10062000EE08FF088A8128E532E0281B310987FDA2
:100630003395220F331F220F331FC901330FAA0B2B
:10064000BB0B9C01AD012C193D094E095F09DB0173
:100650000E94FD0B24EB30E040E050E00E94D30B01
:10066000C20ED31EE41EF51EB60188818C3080F5C3
:10067000998148E850E0491B510997FD5395440F73
:10068000551F440F551F6417750784F09A8128E59C
:1006900032E0291B310997FD3395220F331F220FBA
:1006A000331FAB01261737070CF4A901425051093B
:1006B000440F551F2FB7F89490E0FC01EE0FFF1F79
:1006C0008E0F9F1FFC01E15DFD4F528341832FBFC1
:1006D000DF91CF91FF90EF90DF90CF9008951F931F
:1006E000CF93DF93EC01162F88818C3008F04EC039
:1006F00061E0812F0E9417028881E82FF0E09F01BE
:10070000220F331FE20FF31FE15DFD4F1F73908136
:10071000907C192B108319821A826CE00E94C10C04
:100720009CE0899FB001112440E050E09A01260F1F
:10073000371FF901EE0FFF1F2E0F3F1FF901E15D7B
:10074000FD4F908196FD16C04F5F5F4F4C305105B5
:1007500069F781110FC01092800082E080938100C0
:100760001092850010928400B19A80916F0082608F
:1007700080936F00E881F0E0CF01880F991FE80FA8
:10078000F91FE15DFD4F8081806480838881DF9166
:10079000CF911F9108950E94D30C6115710579F0D6
:1007A000FB0101900020E9F73197AF01461B570B81
:1007B000DC01ED91FC910280F381E02D099480E051
:1007C00090E008954F925F926F927F92EF92FF9226
:1007D0000F931F93CF93DF93CDB7DEB7A1970FB6DB
:1007E000F894DEBF0FBECDBF7C01FA01CB0119A288
:1007F000223008F42AE08E010F5D1F4F422E512C4B
:10080000612C712CBF01A30192010E94B10BF9016F
:10081000CA01015011096A3014F4605D01C0695CBD
:10082000D8016C93232B242B252B61F7B801C7012A
:100830000E94CD03A1960FB6F894DEBF0FBECDBFC8
:10084000DF91CF911F910F91FF90EF907F906F906C
:100850005F904F9008951F920F920FB60F92112440
:100860002F933F934F935F936F937F938F939F93B8
:10087000AF93BF93EF93FF938AE491E00E942A0124
:10088000FF91EF91BF91AF919F918F917F916F9168
:100890005F914F913F912F910F900FBE0F901F903E
:1008A00018951F920F920FB60F9211242F938F93CA
:1008B0009F93EF93FF93E0915A01F0915B01808148
:1008C000E0916001F091610182FD12C09081809100
:1008D00063018F5F8F7320916401821751F0E09163
:1008E0006301F0E0E65BFE4F958F8093630101C0EA
:1008F0008081FF91EF919F918F912F910F900FBE6B
:100900000F901F9018951F920F920FB60F921124FF
:100910002F933F938F939F93AF93BF938091320117
:1009200090913301A0913401B091350130913101A2
:1009300023E0230F2D3720F40196A11DB11D05C022
:1009400026E8230F0296A11DB11D2093310180934B
:10095000320190933301A0933401B093350180911B
:10096000360190913701A0913801B091390101967B
:10097000A11DB11D8093360190933701A0933801DA
:10098000B0933901BF91AF919F918F913F912F917A
:100990000F900FBE0F901F9018951F920F920FB6D9
:1009A0000F9211242F933F934F935F936F937F93F5
:1009B0008F939F93AF93BF93EF93FF9380913001F9
:1009C00087FF05C010928500109284001BC0209103
:1009D0003001022E000C330B8091530290E0281757
:1009E000390784F480913001082E000C990BFC012A
:1009F000EE0FFF1F8E0F9F1FFC01E15DFD4F8081F9
:100A000086FD15C0809130018F5F80933001209169
:100A10003001022E000C330B8091530290E0281716
:100A20003907C4F4809130018C3064F113C0809197
:100A30003001082E000C990BFC01EE0FFF1F8E0FEA
:100A40009F1FFC01E15DFD4F808160E08F730E947C
:100A5000E701D8CF8091840090918500049680347E
:100A60009C4918F480E49CE905C080918400909131
:100A70008500049690938900809388008FEF80937F
:100A800030013BC02091840030918500809130017D
:100A9000082E000C990BFC01EE0FFF1F8E0F9F1FFD
:100AA000FC01E15DFD4F81819281820F931F909344
:100AB00089008093880080913001082E000C990BEA
:100AC000FC01EE0FFF1F8E0F9F1FFC01E15DFD4F2C
:100AD000808186FF12C080913001082E000C990B96
:100AE000FC01EE0FFF1F8E0F9F1FFC01E15DFD4F0C
:100AF000808161E08F730E94E701FF91EF91BF91C8
:100B0000AF919F918F917F916F915F914F913F91A5
:100B10002F910F900FBE0F901F90189510924D01BE
:100B200010924C0188EE93E0A0E0B0E080934E017B
:100B300090934F01A0935001B093510184E091E054
:100B400090934B0180934A0185EC90E0909357017C
:100B50008093560184EC90E0909359018093580162
:100B600080EC90E090935B0180935A0181EC90E0DF
:100B700090935D0180935C0182EC90E090935F0123
:100B800080935E0186EC90E0909361018093600118
:100B90001092630110926401109265011092660137
:100BA0001092ED011092EE011092EF011092F001FF
:100BB0001092F1011092F2011092F3011092F401DF
:100BC0001092F5011092F6011092F7011092F801BF
:100BD0001092F9011092FA011092FB011092FC019F
:100BE00080E090E0A4EBB2E480935E0290935F0219
:100BF000A0936002B09361028AE590E09093630253
:100C000080936202109265021092640284EB90E07D
:100C100090936702809366021092690210926802B4
:100C200090936B0280936A0210926C0210926D0294
:100C300010926E0210926F02109270021092710266
:100C400081E0809372028DEC9CECACECBDE3809370
:100C5000730290937402A0937502B093760210927F
:100C600077021092780210927902809153028C30B0
:100C7000A0F491E0980F909353028093570290E074
:100C8000FC01EE0FFF1F8E0F9F1FFC01E15DFD4F6A
:100C900088EB9BE09283818303C08FEF80935702A0
:100CA000809153028C30A0F491E0980F90935302FE
:100CB0008093540290E0FC01EE0FFF1F8E0F9F1FE8
:100CC000FC01E15DFD4F88EB9BE0928381830895F9
:100CD0008FEF809354020895CF93DF9300D000D01C
:100CE00000D0CDB7DEB7789484B5826084BD84B57A
:100CF000816084BD85B5826085BD85B5816085BD17
:100D000080916E00816080936E00109281008091CE
:100D10008100826080938100809181008160809356
:100D20008100809180008160809380008091B1007B
:100D300084608093B1008091B00081608093B000A6
:100D400080917A00846080937A0080917A0082603A
:100D500080937A0080917A00816080937A008091FC
:100D60007A00806880937A001092C10010922B0262
:100D700010922C0210922D0210922E021092E90174
:100D80001092EA011092EB011092EC010E9478029D
:100D90006B017C014B015C0128EB820E2BE0921E63
:100DA000A11CB11C0E9478026C157D058E059F0563
:100DB00028F086169706A806B906A0F78AE491E0FF
:100DC00090932A02809329020E948C000E9478024C
:100DD0006093E9017093EA018093EB019093EC0139
:100DE00062E171E08091290290912A020E94CD0374
:100DF0000E9478026B017C014B015C013AE0830E9A
:100E0000911CA11CB11C0E9478026C157D058E05F9
:100E10009F0528F086169706A806B906A0F711E0E8
:100E20001093FD010E947802609346017093470180
:100E3000809348019093490160E085E00E94170289
:100E400061E08CE00E94170269E070E087E592E0C3
:100E50000E946F036AE070E084E592E00E946F03F5
:100E60008091570290915802A09159028C839D83E2
:100E7000AE838091540290915502A09156028983CD
:100E80009A83AB830E948C004E0144E0840E911C37
:100E9000C4010E9484027C01CE0101966C010E9473
:100EA00084025C0160E08CE00E94E70190925B02AA
:100EB00080925A02D0925D02C0925C02B701FF0C90
:100EC000880B990B0E94940A60935E0270935F02F4
:100ED0008093600290936102B0926302A0926202DA
:100EE000109265021092640284EB90E09093670286
:100EF00080936602109269021092680290936B02CE
:100F000080936A0210926C0210926D0210926E022F
:100F100010926F021092700210927102109372027E
:100F20008DEC9CECACECBDE3809373029093740267
:100F3000A0937502B0937602109377021092780214
:100F40001092790234EB232E312C0E947802C0904B
:100F50004601D0904701E0904801F09049014B01D3
:100F60005C018C189D08AE08BF0875016401809271
:100F7000420190924301A0924401B09245014091F8
:100F80003E0150913F016091400170914101841AEE
:100F9000950AA60AB70AC501B40180923A01909257
:100FA0003B01A0923C01B0923D01C0923E01D09223
:100FB0003F01E0924001F09241010E94940A6B01CE
:100FC0007C0180915A0290915B020E948402BC01D4
:100FD000990F880B990B0E94940A60935E0270939C
:100FE0005F02809360029093610280915C02909115
:100FF0005D020E948402BC019093630280936202AE
:1010000080917702882309F4C5C08091790281110B
:1010100008C080917802811104C010937902109366
:101020007802809178028823F1F06B35710554F4D1
:1010300080917202882331F0109272021092630242
:10104000109262028091620290916302843B91054A
:1010500054F080917202811106C010937202309296
:1010600063022092620260916202709163026A35AB
:101070007105DCF4072E000C880B990B0E94940A72
:101080004B015C0120917302309174024091750212
:1010900050917602C701B6010E94F30A9B01AC0190
:1010A000C501B4010E94150C1DC06C3571050CF111
:1010B000072E000C880B990B0E94940A4B015C01CF
:1010C0002091730230917402409175025091760222
:1010D000C701B6010E94F30A9B01AC01C501B4012E
:1010E0000E94140C0E94810C709363026093620250
:1010F000B0C080905E0290905F02A0906002B090BD
:10110000610220E030E044EB52E4C501B4010E94EA
:101110008D0A87FF13C020917302309174024091B1
:10112000750250917602C701B6010E94F30A9B0135
:10113000AC01C501B4010E94150C1DC020E030E0D7
:1011400046EB52E4C501B4010E94B70C18160CF02E
:10115000E1C1209173023091740240917502509167
:101160007602C701B6010E94F30A9B01AC01C501DA
:10117000B4010E94140C60935E0270935F0280932E
:101180006002909361020E94810C80915A029091BA
:101190005B0263C0B0907202072E000C880B990BA3
:1011A000BB20B9F00E94940A2B013C0120917302EC
:1011B000309174024091750250917602C701B601D8
:1011C0000E94F30A9B01AC01C301B2010E94140CFE
:1011D00016C00E94940A2B013C01209173023091A9
:1011E00074024091750250917602C701B6010E94C7
:1011F000F30A9B01AC01C301B2010E94150C0E94CD
:10120000810C7093630260936202809162029091FC
:1012100063021816190644F0BB2031F010927202D6
:1012200010926302109262028091620290916302B6
:10123000843B910554F080917202811106C0109395
:101240007202309263022092620260916202709197
:10125000630280915C0290915D020E94EC020E9408
:1012600053024B015C012FE0C22ED12CE12CF12C5A
:101270000E945302DC01CB0188199909AA09BB0914
:10128000883E9340A105B10558F021E0C21AD1086B
:10129000E108F10838EE830E33E0931EA11CB11C67
:1012A000C114D104E104F10419F7E2EBF0E08491F8
:1012B000EEE9F0E0F490EAE8F0E0E490EE2031F1BD
:1012C00081110E94BE01EE2DF0E0EE0FFF1FE458E9
:1012D000FF4FA591B4918C91F822C1F080916C02DE
:1012E000811114C010936C02812C912C80EAA82EDD
:1012F00081E4B82E80926D0290926E02A0926F02ED
:10130000B092700261E08CE00E94E70180903A01A7
:1013100090903B01A0903C01B0903D01C0906D02C7
:10132000D0906E02E0906F02F0907002A7019601DB
:10133000C701B6010E94BC0C882319F064E271E079
:101340001AC026013701E89477F82FEF3FEF4FE7F7
:101350005FE7C301B2010E94BC0C811111C02FEFE5
:101360003FEF4FE75FE7C301B2010E948D0A1816F5
:101370003CF468E271E08AE491E00E94CD0389C008
:101380002FEF3FEF4FE75FE4C701B6010E94B70CB4
:1013900018161CF46CE271E0EECF2FEF3FEF4FE731
:1013A0005FECC701B6010E948D0A87FDF3CF20E0F4
:1013B00030E0A901C701B6010E948D0A87FF0FC066
:1013C000E0914A01F0914B010190F081E02D6DE236
:1013D0008AE491E00995F7FAF094F7F8F0942AE09E
:1013E00037ED43EA5BE3C701B6010E94150C2B0100
:1013F0003C010E94880C6B017C010E94920A9B01B7
:10140000AC01C301B2010E94140C2B013C012AE083
:10141000B701A6018AE491E00E94E203E0914A014B
:10142000F0914B010190F081E02D6EE28AE491E0B1
:10143000099520E030E040E251E4C301B2010E948E
:10144000F30A6B017C010E94880C2B01612C712C2A
:101450002AE0B301A2018AE491E00E94E203C30101
:10146000B2010E94920A9B01AC01C701B6010E9421
:10147000140C20E030E040E251E40E94F30A0E94A4
:10148000880CAB0160E070E02AE08AE491E00E9401
:10149000E20361E271E08AE491E00E94CD03C09032
:1014A0006D02D0906E02E0906F02F090700220E02A
:1014B00030E0A901C701B6010E94B70C181694F4D8
:1014C000C501B4010E94940A9B01AC01C701B60199
:1014D0000E94140C60936D0270936E0280936F02F1
:1014E0009093700220E030E0A90160916D0270914C
:1014F0006E0280916F02909170020E948D0A181600
:1015000034F010926C0260E08CE00E94E7010E94CF
:10151000B4011BCD10927702A2CE0E94CF0A08F42C
:1015200081E00895E89409C097FB3EF4909580957A
:10153000709561957F4F8F4F9F4F9923A9F0F92F99
:1015400096E9BB279395F695879577956795B79517
:10155000F111F8CFFAF4BB0F11F460FF1BC06F5FFD
:101560007F4F8F4F9F4F16C0882311F096E911C00F
:10157000772321F09EE8872F762F05C0662371F030
:1015800096E8862F70E060E02AF09A95660F771F44
:10159000881FDAF7880F9695879597F90895990F20
:1015A0000008550FAA0BE0E8FEEF16161706E8072D
:1015B000F907C0F012161306E407F50798F0621B4E
:1015C000730B840B950B39F40A2661F0232B242B23
:1015D000252B21F408950A2609F4A140A6958FEF42
:1015E000811D811D08950E94060B0C94770B0E94AB
:1015F000690B38F00E94700B20F0952311F00C94C9
:10160000600B0C94660B11240C94AB0B0E94880B9E
:1016100070F3959FC1F3950F50E0551F629FF00145
:10162000729FBB27F00DB11D639FAA27F00DB11D5E
:10163000AA1F649F6627B00DA11D661F829F2227E7
:10164000B00DA11D621F739FB00DA11D621F839F6E
:10165000A00D611D221F749F3327A00D611D231F44
:10166000849F600D211D822F762F6A2F11249F5792
:1016700050409AF0F1F088234AF0EE0FFF1FBB1F95
:10168000661F771F881F91505040A9F79E3F510554
:1016900080F00C94600B0C94AB0B5F3FE4F3983E2E
:1016A000D4F3869577956795B795F795E7959F5FFE
:1016B000C1F7FE2B880F911D9695879597F9089590
:1016C00097F99F6780E870E060E008959FEF80ECF5
:1016D000089500240A941616170618060906089598
:1016E00000240A9412161306140605060895092EFE
:1016F0000394000C11F4882352F0BB0F40F4BF2B6D
:1017000011F460FF04C06F5F7F4F8F4F9F4F0895AC
:1017100057FD9058440F551F59F05F3F71F04795A2
:10172000880F97FB991F61F09F3F79F08795089587
:10173000121613061406551FF2CF4695F1DF08C0A6
:10174000161617061806991FF1CF869571056105C3
:1017500008940895E894BB2766277727CB0197F96B
:101760000895A1E21A2EAA1BBB1BFD010DC0AA1FE2
:10177000BB1FEE1FFF1FA217B307E407F50720F0FA
:10178000A21BB30BE40BF50B661F771F881F991F75
:101790001A9469F760957095809590959B01AC01BE
:1017A000BD01CF010895052E97FB1EF400940E9401
:1017B000EA0B57FD07D00E94B10B07FC03D04EF493
:1017C0000C94EA0B50954095309521953F4F4F4F23
:1017D0005F4F089590958095709561957F4F8F4FDD
:1017E0009F4F08950E94050CA59F900DB49F900DEA
:1017F000A49F800D911D11240895B7FF0C94F20B46
:101800000E94F20B821B930B0895A29FB001B39F1D
:10181000C001A39F700D811D1124911DB29F700DF9
:10182000811D1124911D08955058BB27AA270E949D
:101830002C0C0C94770B0E94690B38F00E94700BF3
:1018400020F039F49F3F19F426F40C94660B0EF443
:10185000E095E7FB0C94600BE92F0E94880B58F38E
:10186000BA17620773078407950720F079F4A6F585
:101870000C94AA0B0EF4E0950B2EBA2FA02D0B01A1
:10188000B90190010C01CA01A0011124FF27591BC5
:1018900099F0593F50F4503E68F11A16F040A22FCB
:1018A000232F342F4427585FF3CF4695379527953C
:1018B000A795F0405395C9F77EF41F16BA0B620B3B
:1018C000730B840BBAF09150A1F0FF0FBB1F661F82
:1018D000771F881FC2F70EC0BA0F621F731F841FC5
:1018E00048F4879577956795B795F7959E3F08F0EB
:1018F000B0CF9395880F08F09927EE0F97958795AD
:1019000008950E94880C6894B1110C94AB0B089553
:101910000E94900B88F09F5798F0B92F9927B751E4
:10192000B0F0E1F0660F771F881F991F1AF0BA9583
:10193000C9F714C0B13091F00E94AA0BB1E008952C
:101940000C94AA0B672F782F8827B85F39F0B93F1E
:10195000CCF3869577956795B395D9F73EF4909536
:101960008095709561957F4F8F4F9F4F08950E948E
:10197000CF0A08F48FEF08950E94CF0A880B990BC5
:101980000895991B79E004C0991F961708F0961BDB
:10199000881F7A95C9F780950895EE0FFF1F05906F
:1019A000F491E02D099481E090E0F8940C94D80C27
:0419B000F894FFCFD9
:1019B400000000004B01B400E30092011401F200A6
:1019C4000601564D4450565F317C315F564D4450AC
:1019D400560D0A006E616E00696E66006F766600D1
:00000001FF
