:100000000C9462000C948A000C948A000C948A0070
:100010000C948A000C948A000C948A000C948A0038
:100020000C948A000C948A000C948A000C947B0433
:100030000C948A000C948A000C948A000C948A0018
:100040000C9431040C948A000C94FF030C94D90393
:100050000C948A000C948A000C948A000C948A00F8
:100060000C948A000C948A000000000024002700F1
:100070002A0000000000250028002B0000000000DE
:1000800023002600290004040404040404040202DA
:100090000202020203030303030301020408102007
:1000A0004080010204081020010204081020000012
:1000B0000008000201000003040700000000000027
:1000C00000003C0511241FBECFEFD8E0DEBFCDBF3E
:1000D00011E0A0E0B1E0E4ECF1E102C005900D9286
:1000E000A833B107D9F722E0A8E3B1E001C01D921F
:1000F000A236B207E1F710E0C2E6D0E004C02197D3
:10010000FE010E94D508C136D107C9F70E94D50566
:100110000C94E0080C940000CF92DF92EF92FF92D3
:100120000F931F93CF93DF936C017A018B01C0E093
:10013000D0E0CE15DF0589F0D8016D918D01D60193
:10014000ED91FC910190F081E02DC6010995892B7C
:1001500011F47E0102C02196ECCFC701DF91CF914F
:100160001F910F91FF90EF90DF90CF900895089529
:1001700080E090E00895FC01538D448D252F30E000
:10018000842F90E0821B930B541710F0CF960895A4
:1001900001970895FC01918D828D981761F0828DF1
:1001A000DF01A80FB11D5D968C91928D9F5F9F73AB
:1001B000928F90E008958FEF9FEF0895FC01918D4D
:1001C000828D981731F0828DE80FF11D858D90E0BA
:1001D00008958FEF9FEF0895FC01918D228D892F57
:1001E00090E0805C9F4F821B91098F73992708953F
:1001F00082E591E00E94EC0021E0892B09F420E0E7
:10020000822F0895FC01848DDF01A80FB11DA35A30
:10021000BF4F2C91848D90E001968F739927848F26
:10022000A689B7892C93A089B1898C9180648C931D
:10023000938D848D981306C00288F389E02D808108
:100240008F7D80830895EF92FF920F931F93CF933A
:10025000DF93EC0181E0888F9B8D8C8D981305C016
:10026000E889F989808185FD24C0F62E0B8D10E088
:100270000F5F1F4F0F731127E02E8C8DE8120CC0FB
:100280000FB607FCFACFE889F989808185FFF5CFA1
:10029000CE010E940201F1CF8B8DFE01E80FF11D0E
:1002A000E35AFF4FF0820B8FEA89FB8980818062DD
:1002B00007C0EE89FF896083E889F98980818064BD
:1002C000808381E090E0DF91CF911F910F91FF90AB
:1002D000EF900895CF93DF93EC01888D8823C9F0C8
:1002E000EA89FB89808185FD05C0A889B9898C913F
:1002F00086FD0FC00FB607FCF5CF808185FFF2CFDA
:10030000A889B9898C9185FFEDCFCE010E940201A9
:10031000E7CFDF91CF91089580E090E0892B29F01D
:100320000E94F80081110C9400000895833081F040
:1003300028F4813099F08230A1F008958730A9F037
:100340008830B9F08430D1F4809180008F7D03C073
:10035000809180008F7780938000089584B58F7797
:1003600002C084B58F7D84BD08958091B0008F77E1
:1003700003C08091B0008F7D8093B00008951F93DB
:10038000CF93DF93282F30E0F901E255FF4F84919E
:10039000F901E656FF4FD491F901EA57FF4FC49196
:1003A000CC23C9F0162F81110E949601EC2FF0E0AA
:1003B000EE0FFF1FEE58FF4FA591B4918FB7F89441
:1003C000111105C09C91ED2FE095E92302C0EC913D
:1003D000ED2BEC938FBFDF91CF911F910895CF93B9
:1003E000DF9390E0FC01E656FF4F2491FC01EA57B1
:1003F000FF4F8491882361F190E0880F991FFC01E1
:10040000E859FF4FC591D491FC01EE58FF4FA591DB
:10041000B491611109C09FB7F89488812095822317
:100420008883EC912E230BC0623061F49FB7F8945F
:100430003881822F809583238883EC912E2B2C93F7
:100440009FBF06C08FB7F894E8812E2B28838FBFFB
:10045000DF91CF9108958E3008F08E5087708064C0
:1004600080937C0080917A00806480937A008091F0
:100470007A0086FDFCCF809178002091790090E091
:10048000922B08953FB7F89480913E0190913F01DF
:10049000A0914001B091410126B5A89B05C02F3F16
:1004A00019F00196A11DB11D3FBFBA2FA92F982F9A
:1004B0008827820F911DA11DB11DBC01CD0142E015
:1004C000660F771F881F991F4A95D1F708952FB798
:1004D000F89460913A0170913B0180913C019091B8
:1004E0003D012FBF08958F929F92AF92BF92CF92FE
:1004F000DF92EF92FF926B017C010E9467024B0139
:100500005C01C60ED71EE81EF91E0E946702681520
:1005100079058A059B0528F0C616D706E806F90670
:10052000A0F7FF90EF90DF90CF90BF90AF909F909B
:100530008F900895CF92DF92EF92FF92CF93DF9347
:10054000EC01603282E078070CF03DC077FD06C018
:10055000653B71052CF064EB70E002C060E070E078
:10056000898128E830E06901C81AD10887FDD39451
:10057000CC0CDD1CCC0CDD1C0D2C000CEE08FF0897
:100580008A8128E532E0281B310987FD3395220F47
:10059000331F220F331FC901330FAA0BBB0B9C0162
:1005A000AD012C193D094E095F09DB010E94AB0822
:1005B00024EB30E040E050E00E948108C20ED31EE0
:1005C000E41EF51EB60188818C3080F5998148E8DB
:1005D00050E0491B510997FD5395440F551F440F97
:1005E000551F6417750784F09A8128E532E0291BAE
:1005F000310997FD3395220F331F220F331FAB01B3
:10060000261737070CF4A90142505109440F551F12
:100610002FB7F89490E0FC01EE0FFF1F8E0F9F1F85
:10062000FC01E95CFD4F528341832FBFDF91CF91E5
:10063000FF90EF90DF90CF9008951F93CF93DF93BB
:10064000EC01162F88818C3008F04EC061E0812FBC
:100650000E94EF018881E82FF0E09F01220F331FF5
:10066000E20FF31FE95CFD4F1F739081907C192B03
:10067000108319821A826CE00E94C2089CE0899F54
:10068000B001112440E050E09A01260F371FF90114
:10069000EE0FFF1F2E0F3F1FF901E95CFD4F908108
:1006A00096FD16C04F5F5F4F4C30510569F78111C1
:1006B0000FC01092800082E080938100109285002C
:1006C00010928400B19A80916F00826080936F00D5
:1006D000E881F0E0CF01880F991FE80FF91FE95C6E
:1006E000FD4F8081806480838881DF91CF911F914D
:1006F00008950E94DB086115710579F0FB010190F6
:100700000020E9F73197AF01461B570BDC01ED9153
:10071000FC910280F381E02D099480E090E008953F
:100720004F925F926F927F92EF92FF920F931F937F
:10073000CF93DF93CDB7DEB7A1970FB6F894DEBFA6
:100740000FBECDBF7C01FA01CB0119A2223008F403
:100750002AE08E010F5D1F4F422E512C612C712C0F
:10076000BF01A30192010E945F08F901CA01015073
:1007700011096A3014F4605D01C0695CD8016C93A2
:10078000232B242B252B61F7B801C7010E947B0383
:10079000A1960FB6F894DEBF0FBECDBFDF91CF910B
:1007A0001F910F91FF90EF907F906F905F904F900F
:1007B00008951F920F920FB60F9211242F933F931B
:1007C0004F935F936F937F938F939F93AF93BF9359
:1007D000EF93FF9382E591E00E940201FF91EF9178
:1007E000BF91AF919F918F917F916F915F914F9149
:1007F0003F912F910F900FBE0F901F9018951F9251
:100800000F920FB60F9211242F938F939F93EF9314
:10081000FF93E0916201F09163018081E0916801B2
:10082000F091690182FD12C0908180916B018F5F10
:100830008F7320916C01821751F0E0916B01F0E011
:10084000EE5AFE4F958F80936B0101C08081FF911E
:10085000EF919F918F912F910F900FBE0F901F904E
:1008600018951F920F920FB60F9211242F933F935A
:100870008F939F93AF93BF9380913A0190913B01E7
:10088000A0913C01B0913D013091390123E0230F4B
:100890002D3720F40196A11DB11D05C026E8230FB8
:1008A0000296A11DB11D2093390180933A019093C6
:1008B0003B01A0933C01B0933D0180913E0190919A
:1008C0003F01A0914001B09141010196A11DB11DD0
:1008D00080933E0190933F01A0934001B09341016A
:1008E000BF91AF919F918F913F912F910F900FBE2C
:1008F0000F901F9018951F920F920FB60F92112410
:100900002F933F934F935F936F937F938F939F9317
:10091000AF93BF93EF93FF938091380187FF05C09A
:1009200010928500109284001BC020913801022E85
:10093000000C330B80915B0290E02817390784F498
:1009400080913801082E000C990BFC01EE0FFF1F5F
:100950008E0F9F1FFC01E95CFD4F808186FD15C055
:10096000809138018F5F8093380120913801022EE9
:10097000000C330B80915B0290E028173907C4F418
:10098000809138018C3064F113C080913801082EB9
:10099000000C990BFC01EE0FFF1F8E0F9F1FFC0137
:1009A000E95CFD4F808160E08F730E94BF01D8CF6A
:1009B0008091840090918500049680349C4918F4BD
:1009C00080E49CE905C080918400909185000496A4
:1009D00090938900809388008FEF809338013BC00B
:1009E000209184003091850080913801082E000C00
:1009F000990BFC01EE0FFF1F8E0F9F1FFC01E95C9E
:100A0000FD4F81819281820F931F90938900809383
:100A1000880080913801082E000C990BFC01EE0F24
:100A2000FF1F8E0F9F1FFC01E95CFD4F808186FF39
:100A300012C080913801082E000C990BFC01EE0FBA
:100A4000FF1F8E0F9F1FFC01E95CFD4F808161E05D
:100A50008F730E94BF01FF91EF91BF91AF919F9162
:100A60008F917F916F915F914F913F912F910F9057
:100A70000FBE0F901F9018951092550110925401BF
:100A800088EE93E0A0E0B0E0809356019093570188
:100A9000A0935801B093590184E091E090935301E1
:100AA0008093520185EC90E090935F0180935E010A
:100AB00084EC90E0909361018093600180EC90E081
:100AC000909363018093620181EC90E090936501C3
:100AD0008093640182EC90E09093670180936601BB
:100AE00086EC90E0909369018093680110926B010D
:100AF00010926C0110926D0110926E011092F5012E
:100B00001092F6011092F7011092F8011092F9017B
:100B10001092FA011092FB011092FC011092FD015B
:100B20001092FE011092FF01109200021092010239
:100B300010920202109203021092040280915B0252
:100B40008C30A0F491E0980F90935B0280935F0249
:100B500090E0FC01EE0FFF1F8E0F9F1FFC01E95C70
:100B6000FD4F88EB9BE09283818303C08FEF8093DE
:100B70005F0280915B028C30A0F491E0980F90931B
:100B80005B0280935C0290E0FC01EE0FFF1F8E0F72
:100B90009F1FFC01E95CFD4F88EB9BE09283818302
:100BA00008958FEF80935C020895CF93DF9300D078
:100BB00000D0CDB7DEB7789484B5826084BD84B5AB
:100BC000816084BD85B5826085BD85B5816085BD48
:100BD00080916E00816080936E0010928100809100
:100BE0008100826080938100809181008160809388
:100BF0008100809180008160809380008091B100AD
:100C000084608093B1008091B00081608093B000D7
:100C100080917A00846080937A0080917A0082606B
:100C200080937A0080917A00816080937A0080912D
:100C30007A00806880937A001092C100109233028B
:100C40001092340210923502109236021092F10185
:100C50001092F2011092F3011092F40168EB7BE024
:100C600080E090E00E94730282E591E0909332026E
:100C700080933102E0916201F091630182E0808310
:100C8000E0915E01F0915F011082E0916001F091CE
:100C9000610180E1808310926A01E0916601F09128
:100CA000670186E08083E0916401F09165018081B5
:100CB00080618083E0916401F091650180818860AA
:100CC0008083E0916401F091650180818068808378
:100CD000E0916401F091650180818F7D80830E94A5
:100CE00067026093F1017093F2018093F301909396
:100CF000F40162E171E080913102909132020E9430
:100D00007B036AE070E080E090E00E94730281E083
:100D10008093050261E08CE00E94EF0160E085E0D5
:100D20000E94EF0169E070E08FE592E00E941D03F0
:100D30006AE070E08CE592E00E941D0388248A94AA
:100D400023E0922EA12CB12C3FE9232E30E0332E4C
:100D50000BE810E00E946702672B682B692B41F4B7
:100D60000E946702623071058105910508F40FC188
:100D70000E94670260934E0170934F01809350016F
:100D800090935101C0904A01D0904B01E0904C01EA
:100D9000F0904D016C157D058E059F0540F4609324
:100DA0004A0170934B0180934C0190934D01C09088
:100DB0004A01D0904B01E0904C01F0904D019B0115
:100DC000AC012C193D094E095F0969017A013AEF1E
:100DD000C316D104E104F10408F4D9C060934A01B8
:100DE00070934B0180934C0190934D0184EF91E0FF
:100DF000A0E0B0E08093FD019093FE01A093FF017D
:100E0000B0930002109201021092020210920302AB
:100E1000109204028091F5019091F601A091F701E2
:100E2000B091F8018093F9019093FA01A093FB012E
:100E3000B093FC010E9467026093F5017093F60184
:100E40008093F7019093F8010E9467026093F1018B
:100E50007093F2018093F3019093F4010E94670272
:100E60006B017C0164E271E0809131029091320269
:100E70000E947B032AE041E050E060E070E0809156
:100E80003102909132020E9490036BE271E08091F6
:100E90003102909132020E947B032AE0B701A60141
:100EA00080913102909132020E9490036DE271E0D4
:100EB00080913102909132020E947B038091F50172
:100EC0009091F601A091F701B091F801B701A60148
:100ED000481B590B6A0B7B0B2AE0809131029091E1
:100EE00032020E9490036DE271E080913102909194
:100EF00032020E947B034091F5015091F60160910E
:100F0000F7017091F8018091F9019091FA01A09197
:100F1000FB01B091FC01481B590B6A0B7B0B2AE0CB
:100F200080913102909132020E9490036FE271E051
:100F300080913102909132020E947B030E946702ED
:100F4000AB01BC012AE080913102909132020E94F3
:100F50009003E0903102F090320261E371E0C7014A
:100F60000E947B0361E271E0C7010E947B0362E0A3
:100F700070E080E090E00E9473020E94670260933C
:100F8000F5017093F6018093F7019093F8018EE0DC
:100F90000E942B027C018FE00E942B023C0124EB7B
:100FA00030E0D7010E94CE08A50194010E9481087B
:100FB00069017A01309349012093480124EB30E024
:100FC000D3010E94CE08A50194010E948108390135
:100FD000309347012093460180914401909145014F
:100FE0008C159D0569F4B6018FE592E029833A835B
:100FF0004B835C830E949A025C814B813A812981F8
:1010000080914201909143016816790659F4B90123
:101010008CE592E029833A834B835C830E949A0299
:101020003A812981D0924501C09244013093430115
:1010300020934201E3EBF0E08491F101F490F80198
:10104000E490EE2079F081110E949601EE2DF0E0FF
:10105000EE0FFF1FE458FF4FA591B4918C918F21A3
:1010600061E009F460E08CE00E94BF010E9442024E
:101070002B013C018FE0C82ED12CE12CF12C0E94D9
:101080004202DC01CB0184199509A609B709883E03
:101090009340A105B10558F0F1E0CF1AD108E1085D
:1010A000F10828EE420E23E0521E611C711CC1148F
:1010B000D104E104F10419F70E948C014BCEA1E2A6
:1010C0001A2EAA1BBB1BFD010DC0AA1FBB1FEE1FC2
:1010D000FF1FA217B307E407F50720F0A21BB30B0D
:1010E000E40BF50B661F771F881F991F1A9469F789
:1010F00060957095809590959B01AC01BD01CF01E5
:101100000895052E97FB1EF400940E94980857FD41
:1011100007D00E945F0807FC03D04EF40C94980897
:1011200050954095309521953F4F4F4F5F4F089513
:1011300090958095709561957F4F8F4F9F4F089543
:101140000E94B308A59F900DB49F900DA49F800DA1
:10115000911D11240895B7FF0C94A0080E94A008C7
:10116000821B930B0895A29FB001B39FC001A39F60
:10117000700D811D1124911DB29F700D811D1124D0
:10118000911D0895991B79E004C0991F961708F0E6
:10119000961B881F7A95C9F7809508950E94B30819
:1011A000B7FF0895821B930B0895EE0FFF1F059064
:1011B000F491E02D099481E090E0F8940C94E0081B
:0411C000F894FFCFD1
:1011C4000000000023018C00BB006A01EC00CA008F
:1011D400DE00564D4450565F317C315F564D4450CD
:1011E400560D0A00564D4450455F003A323A007C91
:0811F400005F564D4450450018
:00000001FF
